:10043E00022C0000023300000A083F065B4F666D77
:10044E007D077F6F0612DFEFF7FBFDFE0226000031
:10045E0002280000022A000002180000012E000CE3
:0D046E001A00000000000000000000000067
:0D04D80075A883C2881204C912015380FB6D
:10015300752F00753006E4F531F532AF3274122F86
:10016300F8E6F590E532640245316008E53264044F
:1001730045317012EF25E0241AF808E62408F8E662
:100183004480F580800FE53225E0241AF808E62440
:1001930008F8E6F5807F0A7E001204A90532E532ED
:1001A30070020531C39406E531940040AEE5301585
:1001B300307002152FD3E5309400E52F940050964C
:1001C300752F00753006E4F531F532E52DB5320AA9
:1001D300E52CB531057590FF800874122532F8E6D9
:1001E300F590E532640245316008E5326404453137
:1001F3007013E53225E0241AF808E62408F8E644EB
:1002030080F580800FE53225E0241AF808E62408FB
:10021300F8E6F5807F0A7E001204A90532E5327004
:10022300020531C39406E5319400409FE530153053
:100233007002152FD3E5309400E52F9400508722E8
:10047C007535007536FFE4F537F538E5A0F46018EE
:10048C007F017E001204A9E5A0F4600CAFA07535C5
:0C049C00008F36E5A0B4FFFBAE35AF3694
:0104A8002231
:10000E00EE6003020152EF240970030200CE24FCBD
:10001E00603724FE601C146003020152E52D452C4E
:10002E006009E52D152D7067152C22752C00752D88
:10003E000522E52D6405452C6009052DE52D700280
:10004E00052C22E4F52CF52D22E52D452C7014C33C
:10005E00E527943CE526940050090527E527700214
:10006E00052622E52D6401452C7014C3E527943C2A
:10007E00E52694005009740A2527F527E48076E5D5
:10008E002D6402452C70090529E5297002052822E8
:10009E00E52D6403452C70028079E52D6404452C12
:1000AE007009052BE52B7002052A22E52D64054506
:1000BE002C6003020152740A252BF52BE402014E2B
:1000CE00E52D452C7014C3E527943CE5269400508D
:1000DE0009E52715277002152622E52D6401452C0A
:1000EE007018C3E527943CE5269400500D74F62550
:1000FE0027F52774FF3526F52622E52D6402452CBB
:10010E007009E5291529703C152822E52D64034553
:10011E002C700C740A2529F529E43528F52822E5DA
:10012E002D6404452C7009E52B152B7017152A220A
:10013E00E52D6405452C700C74F6252BF52B74FFFC
:05014E00352AF52A220C
:0F04C900758901758C0B758ADC75A883D28C221E
:03000B00020243AB
:10024300C0E0C0F0C0D075D000C000C004C005C07D
:1002530006C007C28C758C0B758ADCD28C052EE523
:100263002EC39410500302030E752E000527E527B5
:1002730070020526D3943BE526940040347526008E
:100283007527000529E52970020528D3943BE52845
:100293009400401D752800752900052BE52B70027D
:1002A300052AD39417E52A94004006752A00752B76
:1002B30000AE26AF277C007D0A1203AB8C1A8D1B80
:1002C300AE26AF277C007D0A1203AB8E1C8F1DAEBA
:1002D30028AF297C007D0A1203AB8C1E8D1FAE282C
:1002E300AF297C007D0A1203AB8E208F21AE2AAF8B
:1002F3002B7C007D0A1203AB8C228D23AE2AAF2BFD
:100303007C007D0A1203AB8E248F25D007D006D044
:0C03130005D004D000D0D0D0F0D0E032F3
:03000300020400F4
:10040000C0E0C0F0C083C082C0D075D000C000C0C2
:1004100001C002C003C004C005C006C00712047CAE
:1004200012000ED007D006D005D004D003D002D0E1
:0E04300001D000D0D0D082D083D0F0D0E03206
:1004A900D3EF9400EE6480948040147D647C00ED69
:0F04B9001D70011CED4C70F7EF1F70E41E80E109
:0104C8002211
:0300000002031FD9
:0C031F00787FE4F6D8FD75813802036693
:1003AB00BC000BBE0029EF8DF084FFADF022E4CC36
:1003BB00F875F008EF2FFFEE33FEEC33FCEE9DECFF
:1003CB00984005FCEE9DFE0FD5F0E9E4CEFD22ED45
:1003DB00F8F5F0EE8420D21CFEADF075F008EF2F8F
:1003EB00FFED33FD4007985006D5F0F222C398FD80
:0503FB000FD5F0EA221D
:10032B000204D8E493A3F8E493A34003F68001F20C
:10033B0008DFF48029E493A3F85407240CC8C333D3
:10034B00C4540F4420C8834004F456800146F6DFA2
:10035B00E4800B010204081020408090043EE47EF0
:10036B00019360BCA3FF543F30E509541FFEE49397
:10037B00A360010ECF54C025E060A840B8E493A35E
:10038B00FAE493A3F8E493A3C8C582C8CAC583CA89
:10039B00F0A3C8C582C8CAC583CADFE9DEE780BE41
:01047B000080
:00000001FF
